{
  "_format": "hh-sol-artifact-1",
  "contractName": "Monarchs",
  "sourceName": "contracts/Monarchs.sol",
  "abi": [
    {
      "inputs": [],
      "stateMutability": "nonpayable",
      "type": "constructor"
    },
    {
      "anonymous": false,
      "inputs": [
        {
          "indexed": true,
          "internalType": "address",
          "name": "king",
          "type": "address"
        },
        {
          "indexed": false,
          "internalType": "uint256",
          "name": "price",
          "type": "uint256"
        }
      ],
      "name": "NewKing",
      "type": "event"
    },
    {
      "anonymous": false,
      "inputs": [
        {
          "indexed": true,
          "internalType": "address",
          "name": "previousOwner",
          "type": "address"
        },
        {
          "indexed": true,
          "internalType": "address",
          "name": "newOwner",
          "type": "address"
        }
      ],
      "name": "OwnershipTransferred",
      "type": "event"
    },
    {
      "anonymous": false,
      "inputs": [
        {
          "indexed": false,
          "internalType": "address",
          "name": "account",
          "type": "address"
        }
      ],
      "name": "Paused",
      "type": "event"
    },
    {
      "anonymous": false,
      "inputs": [
        {
          "indexed": false,
          "internalType": "address",
          "name": "account",
          "type": "address"
        }
      ],
      "name": "Unpaused",
      "type": "event"
    },
    {
      "inputs": [],
      "name": "claimPrice",
      "outputs": [
        {
          "internalType": "uint256",
          "name": "",
          "type": "uint256"
        }
      ],
      "stateMutability": "view",
      "type": "function"
    },
    {
      "inputs": [],
      "name": "claimThrone",
      "outputs": [],
      "stateMutability": "payable",
      "type": "function"
    },
    {
      "inputs": [],
      "name": "currentKing",
      "outputs": [
        {
          "internalType": "address",
          "name": "",
          "type": "address"
        }
      ],
      "stateMutability": "view",
      "type": "function"
    },
    {
      "inputs": [],
      "name": "listMonarchs",
      "outputs": [
        {
          "components": [
            {
              "internalType": "address",
              "name": "monarchAddress",
              "type": "address"
            },
            {
              "internalType": "uint256",
              "name": "pricePaid",
              "type": "uint256"
            }
          ],
          "internalType": "struct Monarchs.Monarch[]",
          "name": "",
          "type": "tuple[]"
        }
      ],
      "stateMutability": "view",
      "type": "function"
    },
    {
      "inputs": [
        {
          "internalType": "uint256",
          "name": "",
          "type": "uint256"
        }
      ],
      "name": "monarchs",
      "outputs": [
        {
          "internalType": "address",
          "name": "monarchAddress",
          "type": "address"
        },
        {
          "internalType": "uint256",
          "name": "pricePaid",
          "type": "uint256"
        }
      ],
      "stateMutability": "view",
      "type": "function"
    },
    {
      "inputs": [],
      "name": "owner",
      "outputs": [
        {
          "internalType": "address",
          "name": "",
          "type": "address"
        }
      ],
      "stateMutability": "view",
      "type": "function"
    },
    {
      "inputs": [],
      "name": "paused",
      "outputs": [
        {
          "internalType": "bool",
          "name": "",
          "type": "bool"
        }
      ],
      "stateMutability": "view",
      "type": "function"
    },
    {
      "inputs": [],
      "name": "renounceOwnership",
      "outputs": [],
      "stateMutability": "nonpayable",
      "type": "function"
    },
    {
      "inputs": [],
      "name": "sweepFunds",
      "outputs": [],
      "stateMutability": "nonpayable",
      "type": "function"
    },
    {
      "inputs": [
        {
          "internalType": "address",
          "name": "newOwner",
          "type": "address"
        }
      ],
      "name": "transferOwnership",
      "outputs": [],
      "stateMutability": "nonpayable",
      "type": "function"
    }
  ],
  "bytecode": "0x6080604052662386f26fc1000060025534801561001b57600080fd5b5060008060006101000a81548160ff02191690831515021790555061005261004761005760201b60201c565b61005f60201b60201c565b610124565b600033905090565b60008060019054906101000a900473ffffffffffffffffffffffffffffffffffffffff16905081600060016101000a81548173ffffffffffffffffffffffffffffffffffffffff021916908373ffffffffffffffffffffffffffffffffffffffff1602179055508173ffffffffffffffffffffffffffffffffffffffff168173ffffffffffffffffffffffffffffffffffffffff167f8be0079c531659141344cd1fd0a4f28419497f9722a3daafe3b4186f6b6457e060405160405180910390a35050565b610ee2806101336000396000f3fe6080604052600436106100915760003560e01c80638b252ab9116100595780638b252ab9146101385780638da5cb5b14610176578063a8d6fe04146101a1578063f2fde38b146101b8578063f5b45714146101e157610091565b806315d655c9146100965780633e87a350146100c15780635c975abb146100ec57806369deb7b714610117578063715018a614610121575b600080fd5b3480156100a257600080fd5b506100ab61020c565b6040516100b89190610ba2565b60405180910390f35b3480156100cd57600080fd5b506100d6610212565b6040516100e39190610ae5565b60405180910390f35b3480156100f857600080fd5b506101016102d1565b60405161010e9190610b07565b60405180910390f35b61011f6102e7565b005b34801561012d57600080fd5b50610136610581565b005b34801561014457600080fd5b5061015f600480360381019061015a91906108fc565b610595565b60405161016d929190610abc565b60405180910390f35b34801561018257600080fd5b5061018b6105e9565b6040516101989190610aa1565b60405180910390f35b3480156101ad57600080fd5b506101b6610612565b005b3480156101c457600080fd5b506101df60048036038101906101da91906108d3565b61066a565b005b3480156101ed57600080fd5b506101f66106ee565b6040516102039190610aa1565b60405180910390f35b60025481565b60606003805480602002602001604051908101604052809291908181526020016000905b828210156102c857838290600052602060002090600202016040518060400160405290816000820160009054906101000a900473ffffffffffffffffffffffffffffffffffffffff1673ffffffffffffffffffffffffffffffffffffffff1673ffffffffffffffffffffffffffffffffffffffff16815260200160018201548152505081526020019060010190610236565b50505050905090565b60008060009054906101000a900460ff16905090565b6102ef610714565b600254341015610334576040517f08c379a000000000000000000000000000000000000000000000000000000000815260040161032b90610b42565b60405180910390fd5b600073ffffffffffffffffffffffffffffffffffffffff16600160009054906101000a900473ffffffffffffffffffffffffffffffffffffffff1673ffffffffffffffffffffffffffffffffffffffff16146103f657600160009054906101000a900473ffffffffffffffffffffffffffffffffffffffff1673ffffffffffffffffffffffffffffffffffffffff166108fc6002549081150290604051600060405180830381858888f193505050501580156103f4573d6000803e3d6000fd5b505b600360405180604001604052803373ffffffffffffffffffffffffffffffffffffffff16815260200134815250908060018154018082558091505060019003906000526020600020906002020160009091909190915060008201518160000160006101000a81548173ffffffffffffffffffffffffffffffffffffffff021916908373ffffffffffffffffffffffffffffffffffffffff16021790555060208201518160010155505033600160006101000a81548173ffffffffffffffffffffffffffffffffffffffff021916908373ffffffffffffffffffffffffffffffffffffffff1602179055506064600a60646104f09190610c07565b6002546104fd9190610c8e565b6105079190610c5d565b600281905550600160009054906101000a900473ffffffffffffffffffffffffffffffffffffffff1673ffffffffffffffffffffffffffffffffffffffff167f63ea6e44e60fc591b95af6fb21146b2cd7815b93a09283200daca3105c640a9e6002546040516105779190610ba2565b60405180910390a2565b61058961075e565b61059360006107dc565b565b600381815481106105a557600080fd5b90600052602060002090600202016000915090508060000160009054906101000a900473ffffffffffffffffffffffffffffffffffffffff16908060010154905082565b60008060019054906101000a900473ffffffffffffffffffffffffffffffffffffffff16905090565b61061a61075e565b6106226105e9565b73ffffffffffffffffffffffffffffffffffffffff166108fc479081150290604051600060405180830381858888f19350505050158015610667573d6000803e3d6000fd5b50565b61067261075e565b600073ffffffffffffffffffffffffffffffffffffffff168173ffffffffffffffffffffffffffffffffffffffff1614156106e2576040517f08c379a00000000000000000000000000000000000000000000000000000000081526004016106d990610b22565b60405180910390fd5b6106eb816107dc565b50565b600160009054906101000a900473ffffffffffffffffffffffffffffffffffffffff1681565b61071c6102d1565b1561075c576040517f08c379a000000000000000000000000000000000000000000000000000000000815260040161075390610b62565b60405180910390fd5b565b6107666108a1565b73ffffffffffffffffffffffffffffffffffffffff166107846105e9565b73ffffffffffffffffffffffffffffffffffffffff16146107da576040517f08c379a00000000000000000000000000000000000000000000000000000000081526004016107d190610b82565b60405180910390fd5b565b60008060019054906101000a900473ffffffffffffffffffffffffffffffffffffffff16905081600060016101000a81548173ffffffffffffffffffffffffffffffffffffffff021916908373ffffffffffffffffffffffffffffffffffffffff1602179055508173ffffffffffffffffffffffffffffffffffffffff168173ffffffffffffffffffffffffffffffffffffffff167f8be0079c531659141344cd1fd0a4f28419497f9722a3daafe3b4186f6b6457e060405160405180910390a35050565b600033905090565b6000813590506108b881610e7e565b92915050565b6000813590506108cd81610e95565b92915050565b6000602082840312156108e557600080fd5b60006108f3848285016108a9565b91505092915050565b60006020828403121561090e57600080fd5b600061091c848285016108be565b91505092915050565b60006109318383610a54565b60408301905092915050565b61094681610ce8565b82525050565b61095581610ce8565b82525050565b600061096682610bcd565b6109708185610be5565b935061097b83610bbd565b8060005b838110156109ac5781516109938882610925565b975061099e83610bd8565b92505060018101905061097f565b5085935050505092915050565b6109c281610cfa565b82525050565b60006109d5602683610bf6565b91506109e082610d8e565b604082019050919050565b60006109f8602983610bf6565b9150610a0382610ddd565b604082019050919050565b6000610a1b601083610bf6565b9150610a2682610e2c565b602082019050919050565b6000610a3e602083610bf6565b9150610a4982610e55565b602082019050919050565b604082016000820151610a6a600085018261093d565b506020820151610a7d6020850182610a83565b50505050565b610a8c81610d26565b82525050565b610a9b81610d26565b82525050565b6000602082019050610ab6600083018461094c565b92915050565b6000604082019050610ad1600083018561094c565b610ade6020830184610a92565b9392505050565b60006020820190508181036000830152610aff818461095b565b905092915050565b6000602082019050610b1c60008301846109b9565b92915050565b60006020820190508181036000830152610b3b816109c8565b9050919050565b60006020820190508181036000830152610b5b816109eb565b9050919050565b60006020820190508181036000830152610b7b81610a0e565b9050919050565b60006020820190508181036000830152610b9b81610a31565b9050919050565b6000602082019050610bb76000830184610a92565b92915050565b6000819050602082019050919050565b600081519050919050565b6000602082019050919050565b600082825260208201905092915050565b600082825260208201905092915050565b6000610c1282610d26565b9150610c1d83610d26565b9250827fffffffffffffffffffffffffffffffffffffffffffffffffffffffffffffffff03821115610c5257610c51610d30565b5b828201905092915050565b6000610c6882610d26565b9150610c7383610d26565b925082610c8357610c82610d5f565b5b828204905092915050565b6000610c9982610d26565b9150610ca483610d26565b9250817fffffffffffffffffffffffffffffffffffffffffffffffffffffffffffffffff0483118215151615610cdd57610cdc610d30565b5b828202905092915050565b6000610cf382610d06565b9050919050565b60008115159050919050565b600073ffffffffffffffffffffffffffffffffffffffff82169050919050565b6000819050919050565b7f4e487b7100000000000000000000000000000000000000000000000000000000600052601160045260246000fd5b7f4e487b7100000000000000000000000000000000000000000000000000000000600052601260045260246000fd5b7f4f776e61626c653a206e6577206f776e657220697320746865207a65726f206160008201527f6464726573730000000000000000000000000000000000000000000000000000602082015250565b7f53656e74204574686572206973206c657373207468616e20746865206375727260008201527f656e742070726963650000000000000000000000000000000000000000000000602082015250565b7f5061757361626c653a2070617573656400000000000000000000000000000000600082015250565b7f4f776e61626c653a2063616c6c6572206973206e6f7420746865206f776e6572600082015250565b610e8781610ce8565b8114610e9257600080fd5b50565b610e9e81610d26565b8114610ea957600080fd5b5056fea264697066735822122060f533ea898e5bbd9fb290fe425c128c0e847f5920f1a167a2cd63e2c9c171e264736f6c63430008040033",
  "linkReferences": {},
  "deployedLinkReferences": {}
}