{
  "_format": "hh-sol-artifact-1",
  "contractName": "Monarchs",
  "sourceName": "contracts/Monarchs.sol",
  "abi": [
    {
      "inputs": [],
      "stateMutability": "nonpayable",
      "type": "constructor"
    },
    {
      "anonymous": false,
      "inputs": [
        {
          "indexed": true,
          "internalType": "address",
          "name": "king",
          "type": "address"
        },
        {
          "indexed": false,
          "internalType": "uint256",
          "name": "price",
          "type": "uint256"
        }
      ],
      "name": "NewKing",
      "type": "event"
    },
    {
      "anonymous": false,
      "inputs": [
        {
          "indexed": true,
          "internalType": "address",
          "name": "previousOwner",
          "type": "address"
        },
        {
          "indexed": true,
          "internalType": "address",
          "name": "newOwner",
          "type": "address"
        }
      ],
      "name": "OwnershipTransferred",
      "type": "event"
    },
    {
      "anonymous": false,
      "inputs": [
        {
          "indexed": false,
          "internalType": "address",
          "name": "account",
          "type": "address"
        }
      ],
      "name": "Paused",
      "type": "event"
    },
    {
      "anonymous": false,
      "inputs": [
        {
          "indexed": true,
          "internalType": "address",
          "name": "royalGuildAddress",
          "type": "address"
        }
      ],
      "name": "RoyalGuildCreated",
      "type": "event"
    },
    {
      "anonymous": false,
      "inputs": [
        {
          "indexed": false,
          "internalType": "address",
          "name": "account",
          "type": "address"
        }
      ],
      "name": "Unpaused",
      "type": "event"
    },
    {
      "inputs": [],
      "name": "claimPrice",
      "outputs": [
        {
          "internalType": "uint256",
          "name": "",
          "type": "uint256"
        }
      ],
      "stateMutability": "view",
      "type": "function"
    },
    {
      "inputs": [],
      "name": "claimThrone",
      "outputs": [],
      "stateMutability": "payable",
      "type": "function"
    },
    {
      "inputs": [],
      "name": "currentKing",
      "outputs": [
        {
          "internalType": "address",
          "name": "",
          "type": "address"
        }
      ],
      "stateMutability": "view",
      "type": "function"
    },
    {
      "inputs": [],
      "name": "getAllMonarchJoinCounts",
      "outputs": [
        {
          "internalType": "address[]",
          "name": "monarchAddresses",
          "type": "address[]"
        },
        {
          "internalType": "uint256[]",
          "name": "joinCounts",
          "type": "uint256[]"
        }
      ],
      "stateMutability": "view",
      "type": "function"
    },
    {
      "inputs": [],
      "name": "getGuildMembers",
      "outputs": [
        {
          "internalType": "address[]",
          "name": "",
          "type": "address[]"
        }
      ],
      "stateMutability": "view",
      "type": "function"
    },
    {
      "inputs": [],
      "name": "joinRoyalGuild",
      "outputs": [],
      "stateMutability": "nonpayable",
      "type": "function"
    },
    {
      "inputs": [],
      "name": "listMonarchs",
      "outputs": [
        {
          "components": [
            {
              "internalType": "address",
              "name": "monarchAddress",
              "type": "address"
            },
            {
              "internalType": "uint256",
              "name": "pricePaid",
              "type": "uint256"
            }
          ],
          "internalType": "struct Monarchs.Monarch[]",
          "name": "",
          "type": "tuple[]"
        }
      ],
      "stateMutability": "view",
      "type": "function"
    },
    {
      "inputs": [
        {
          "internalType": "uint256",
          "name": "",
          "type": "uint256"
        }
      ],
      "name": "monarchs",
      "outputs": [
        {
          "internalType": "address",
          "name": "monarchAddress",
          "type": "address"
        },
        {
          "internalType": "uint256",
          "name": "pricePaid",
          "type": "uint256"
        }
      ],
      "stateMutability": "view",
      "type": "function"
    },
    {
      "inputs": [],
      "name": "owner",
      "outputs": [
        {
          "internalType": "address",
          "name": "",
          "type": "address"
        }
      ],
      "stateMutability": "view",
      "type": "function"
    },
    {
      "inputs": [],
      "name": "paused",
      "outputs": [
        {
          "internalType": "bool",
          "name": "",
          "type": "bool"
        }
      ],
      "stateMutability": "view",
      "type": "function"
    },
    {
      "inputs": [],
      "name": "renounceOwnership",
      "outputs": [],
      "stateMutability": "nonpayable",
      "type": "function"
    },
    {
      "inputs": [],
      "name": "sweepFunds",
      "outputs": [],
      "stateMutability": "nonpayable",
      "type": "function"
    },
    {
      "inputs": [
        {
          "internalType": "address",
          "name": "newOwner",
          "type": "address"
        }
      ],
      "name": "transferOwnership",
      "outputs": [],
      "stateMutability": "nonpayable",
      "type": "function"
    }
  ],
  "bytecode": "0x6080604052662386f26fc100006002553480156200001c57600080fd5b5060008060006101000a81548160ff021916908315150217905550620000576200004b6200013b60201b60201c565b6200014360201b60201c565b30604051620000669062000208565b62000072919062000227565b604051809103906000f0801580156200008f573d6000803e3d6000fd5b50600460006101000a81548173ffffffffffffffffffffffffffffffffffffffff021916908373ffffffffffffffffffffffffffffffffffffffff160217905550600460009054906101000a900473ffffffffffffffffffffffffffffffffffffffff1673ffffffffffffffffffffffffffffffffffffffff167f898ade39398a43c09f9ec655fcc2833035041b31fb26765c377b5ccf08cf3cfa60405160405180910390a262000278565b600033905090565b60008060019054906101000a900473ffffffffffffffffffffffffffffffffffffffff16905081600060016101000a81548173ffffffffffffffffffffffffffffffffffffffff021916908373ffffffffffffffffffffffffffffffffffffffff1602179055508173ffffffffffffffffffffffffffffffffffffffff168173ffffffffffffffffffffffffffffffffffffffff167f8be0079c531659141344cd1fd0a4f28419497f9722a3daafe3b4186f6b6457e060405160405180910390a35050565b61086a8062001ff483390190565b620002218162000244565b82525050565b60006020820190506200023e600083018462000216565b92915050565b6000620002518262000258565b9050919050565b600073ffffffffffffffffffffffffffffffffffffffff82169050919050565b611d6c80620002886000396000f3fe6080604052600436106100c25760003560e01c8063715018a61161007f5780638da5cb5b116100595780638da5cb5b14610215578063a8d6fe0414610240578063f2fde38b14610257578063f5b4571414610280576100c2565b8063715018a6146101a957806379c38c9f146101c05780638b252ab9146101d7576100c2565b80630f8ee674146100c757806315d655c9146100f25780633e87a3501461011d5780635c8b56d5146101485780635c975abb1461017457806369deb7b71461019f575b600080fd5b3480156100d357600080fd5b506100dc6102ab565b6040516100e991906117fb565b60405180910390f35b3480156100fe57600080fd5b506101076106a6565b6040516101149190611931565b60405180910390f35b34801561012957600080fd5b506101326106ac565b60405161013f9190611854565b60405180910390f35b34801561015457600080fd5b5061015d61076b565b60405161016b92919061181d565b60405180910390f35b34801561018057600080fd5b50610189610cf8565b6040516101969190611876565b60405180910390f35b6101a7610d0e565b005b3480156101b557600080fd5b506101be611035565b005b3480156101cc57600080fd5b506101d5611049565b005b3480156101e357600080fd5b506101fe60048036038101906101f991906114da565b611120565b60405161020c9291906117d2565b60405180910390f35b34801561022157600080fd5b5061022a611174565b60405161023791906117b7565b60405180910390f35b34801561024c57600080fd5b5061025561119d565b005b34801561026357600080fd5b5061027e60048036038101906102799190611488565b6111f5565b005b34801561028c57600080fd5b50610295611279565b6040516102a291906117b7565b60405180910390f35b60606000805b6003805490508110156103fb57600460009054906101000a900473ffffffffffffffffffffffffffffffffffffffff1673ffffffffffffffffffffffffffffffffffffffff1663a230c52460038381548110610336577f4e487b7100000000000000000000000000000000000000000000000000000000600052603260045260246000fd5b906000526020600020906002020160000160009054906101000a900473ffffffffffffffffffffffffffffffffffffffff166040518263ffffffff1660e01b815260040161038491906117b7565b60206040518083038186803b15801561039c57600080fd5b505afa1580156103b0573d6000803e3d6000fd5b505050506040513d601f19601f820116820180604052508101906103d491906114b1565b156103e85781806103e490611b31565b9250505b80806103f390611b31565b9150506102b1565b5060008167ffffffffffffffff81111561043e577f4e487b7100000000000000000000000000000000000000000000000000000000600052604160045260246000fd5b60405190808252806020026020018201604052801561046c5781602001602082028036833780820191505090505b5090506000805b60038054905081101561069c57600460009054906101000a900473ffffffffffffffffffffffffffffffffffffffff1673ffffffffffffffffffffffffffffffffffffffff1663a230c524600383815481106104f8577f4e487b7100000000000000000000000000000000000000000000000000000000600052603260045260246000fd5b906000526020600020906002020160000160009054906101000a900473ffffffffffffffffffffffffffffffffffffffff166040518263ffffffff1660e01b815260040161054691906117b7565b60206040518083038186803b15801561055e57600080fd5b505afa158015610572573d6000803e3d6000fd5b505050506040513d601f19601f8201168201806040525081019061059691906114b1565b1561068957600381815481106105d5577f4e487b7100000000000000000000000000000000000000000000000000000000600052603260045260246000fd5b906000526020600020906002020160000160009054906101000a900473ffffffffffffffffffffffffffffffffffffffff16838381518110610640577f4e487b7100000000000000000000000000000000000000000000000000000000600052603260045260246000fd5b602002602001019073ffffffffffffffffffffffffffffffffffffffff16908173ffffffffffffffffffffffffffffffffffffffff1681525050818061068590611b31565b9250505b808061069490611b31565b915050610473565b5081935050505090565b60025481565b60606003805480602002602001604051908101604052809291908181526020016000905b8282101561076257838290600052602060002090600202016040518060400160405290816000820160009054906101000a900473ffffffffffffffffffffffffffffffffffffffff1673ffffffffffffffffffffffffffffffffffffffff1673ffffffffffffffffffffffffffffffffffffffff168152602001600182015481525050815260200190600101906106d0565b50505050905090565b606080600060038054905067ffffffffffffffff8111156107b5577f4e487b7100000000000000000000000000000000000000000000000000000000600052604160045260246000fd5b6040519080825280602002602001820160405280156107e35781602001602082028036833780820191505090505b5090506000805b600380549050811015610a0c5760006001905060005b8381101561090357848181518110610841577f4e487b7100000000000000000000000000000000000000000000000000000000600052603260045260246000fd5b602002602001015173ffffffffffffffffffffffffffffffffffffffff1660038481548110610899577f4e487b7100000000000000000000000000000000000000000000000000000000600052603260045260246000fd5b906000526020600020906002020160000160009054906101000a900473ffffffffffffffffffffffffffffffffffffffff1673ffffffffffffffffffffffffffffffffffffffff1614156108f05760009150610903565b80806108fb90611b31565b915050610800565b5080156109f85760038281548110610944577f4e487b7100000000000000000000000000000000000000000000000000000000600052603260045260246000fd5b906000526020600020906002020160000160009054906101000a900473ffffffffffffffffffffffffffffffffffffffff168484815181106109af577f4e487b7100000000000000000000000000000000000000000000000000000000600052603260045260246000fd5b602002602001019073ffffffffffffffffffffffffffffffffffffffff16908173ffffffffffffffffffffffffffffffffffffffff168152505082806109f490611b31565b9350505b508080610a0490611b31565b9150506107ea565b508067ffffffffffffffff811115610a4d577f4e487b7100000000000000000000000000000000000000000000000000000000600052604160045260246000fd5b604051908082528060200260200182016040528015610a7b5781602001602082028036833780820191505090505b5093508067ffffffffffffffff811115610abe577f4e487b7100000000000000000000000000000000000000000000000000000000600052604160045260246000fd5b604051908082528060200260200182016040528015610aec5781602001602082028036833780820191505090505b50925060005b81811015610cf157828181518110610b33577f4e487b7100000000000000000000000000000000000000000000000000000000600052603260045260246000fd5b6020026020010151858281518110610b74577f4e487b7100000000000000000000000000000000000000000000000000000000600052603260045260246000fd5b602002602001019073ffffffffffffffffffffffffffffffffffffffff16908173ffffffffffffffffffffffffffffffffffffffff1681525050600460009054906101000a900473ffffffffffffffffffffffffffffffffffffffff1673ffffffffffffffffffffffffffffffffffffffff1663928a7762848381518110610c25577f4e487b7100000000000000000000000000000000000000000000000000000000600052603260045260246000fd5b60200260200101516040518263ffffffff1660e01b8152600401610c4991906117b7565b60206040518083038186803b158015610c6157600080fd5b505afa158015610c75573d6000803e3d6000fd5b505050506040513d601f19601f82011682018060405250810190610c999190611503565b848281518110610cd2577f4e487b7100000000000000000000000000000000000000000000000000000000600052603260045260246000fd5b6020026020010181815250508080610ce990611b31565b915050610af2565b5050509091565b60008060009054906101000a900460ff16905090565b610d1661129f565b600254341015610d5b576040517f08c379a0000000000000000000000000000000000000000000000000000000008152600401610d52906118b1565b60405180910390fd5b600073ffffffffffffffffffffffffffffffffffffffff16600160009054906101000a900473ffffffffffffffffffffffffffffffffffffffff1673ffffffffffffffffffffffffffffffffffffffff1614610e1d57600160009054906101000a900473ffffffffffffffffffffffffffffffffffffffff1673ffffffffffffffffffffffffffffffffffffffff166108fc6002549081150290604051600060405180830381858888f19350505050158015610e1b573d6000803e3d6000fd5b505b600360405180604001604052803373ffffffffffffffffffffffffffffffffffffffff16815260200134815250908060018154018082558091505060019003906000526020600020906002020160009091909190915060008201518160000160006101000a81548173ffffffffffffffffffffffffffffffffffffffff021916908373ffffffffffffffffffffffffffffffffffffffff16021790555060208201518160010155505033600160006101000a81548173ffffffffffffffffffffffffffffffffffffffff021916908373ffffffffffffffffffffffffffffffffffffffff1602179055506064600a6064610f179190611a08565b600254610f249190611a8f565b610f2e9190611a5e565b600281905550600460009054906101000a900473ffffffffffffffffffffffffffffffffffffffff1673ffffffffffffffffffffffffffffffffffffffff1663fffb7be5336040518263ffffffff1660e01b8152600401610f8f91906117b7565b600060405180830381600087803b158015610fa957600080fd5b505af1158015610fbd573d6000803e3d6000fd5b50505050600160009054906101000a900473ffffffffffffffffffffffffffffffffffffffff1673ffffffffffffffffffffffffffffffffffffffff167f63ea6e44e60fc591b95af6fb21146b2cd7815b93a09283200daca3105c640a9e60025460405161102b9190611931565b60405180910390a2565b61103d6112e9565b6110476000611367565b565b600060038054905011611091576040517f08c379a0000000000000000000000000000000000000000000000000000000008152600401611088906118d1565b60405180910390fd5b600460009054906101000a900473ffffffffffffffffffffffffffffffffffffffff1673ffffffffffffffffffffffffffffffffffffffff1663eb00eb8f336040518263ffffffff1660e01b81526004016110ec91906117b7565b600060405180830381600087803b15801561110657600080fd5b505af115801561111a573d6000803e3d6000fd5b50505050565b6003818154811061113057600080fd5b90600052602060002090600202016000915090508060000160009054906101000a900473ffffffffffffffffffffffffffffffffffffffff16908060010154905082565b60008060019054906101000a900473ffffffffffffffffffffffffffffffffffffffff16905090565b6111a56112e9565b6111ad611174565b73ffffffffffffffffffffffffffffffffffffffff166108fc479081150290604051600060405180830381858888f193505050501580156111f2573d6000803e3d6000fd5b50565b6111fd6112e9565b600073ffffffffffffffffffffffffffffffffffffffff168173ffffffffffffffffffffffffffffffffffffffff16141561126d576040517f08c379a000000000000000000000000000000000000000000000000000000000815260040161126490611891565b60405180910390fd5b61127681611367565b50565b600160009054906101000a900473ffffffffffffffffffffffffffffffffffffffff1681565b6112a7610cf8565b156112e7576040517f08c379a00000000000000000000000000000000000000000000000000000000081526004016112de906118f1565b60405180910390fd5b565b6112f161142c565b73ffffffffffffffffffffffffffffffffffffffff1661130f611174565b73ffffffffffffffffffffffffffffffffffffffff1614611365576040517f08c379a000000000000000000000000000000000000000000000000000000000815260040161135c90611911565b60405180910390fd5b565b60008060019054906101000a900473ffffffffffffffffffffffffffffffffffffffff16905081600060016101000a81548173ffffffffffffffffffffffffffffffffffffffff021916908373ffffffffffffffffffffffffffffffffffffffff1602179055508173ffffffffffffffffffffffffffffffffffffffff168173ffffffffffffffffffffffffffffffffffffffff167f8be0079c531659141344cd1fd0a4f28419497f9722a3daafe3b4186f6b6457e060405160405180910390a35050565b600033905090565b60008135905061144381611cf1565b92915050565b60008151905061145881611d08565b92915050565b60008135905061146d81611d1f565b92915050565b60008151905061148281611d1f565b92915050565b60006020828403121561149a57600080fd5b60006114a884828501611434565b91505092915050565b6000602082840312156114c357600080fd5b60006114d184828501611449565b91505092915050565b6000602082840312156114ec57600080fd5b60006114fa8482850161145e565b91505092915050565b60006020828403121561151557600080fd5b600061152384828501611473565b91505092915050565b60006115388383611574565b60208301905092915050565b6000611550838361176a565b60408301905092915050565b60006115688383611799565b60208301905092915050565b61157d81611ae9565b82525050565b61158c81611ae9565b82525050565b600061159d8261197c565b6115a781856119c4565b93506115b28361194c565b8060005b838110156115e35781516115ca888261152c565b97506115d58361199d565b9250506001810190506115b6565b5085935050505092915050565b60006115fb82611987565b61160581856119d5565b93506116108361195c565b8060005b838110156116415781516116288882611544565b9750611633836119aa565b925050600181019050611614565b5085935050505092915050565b600061165982611992565b61166381856119e6565b935061166e8361196c565b8060005b8381101561169f578151611686888261155c565b9750611691836119b7565b925050600181019050611672565b5085935050505092915050565b6116b581611afb565b82525050565b60006116c86026836119f7565b91506116d382611bd8565b604082019050919050565b60006116eb6029836119f7565b91506116f682611c27565b604082019050919050565b600061170e601e836119f7565b915061171982611c76565b602082019050919050565b60006117316010836119f7565b915061173c82611c9f565b602082019050919050565b60006117546020836119f7565b915061175f82611cc8565b602082019050919050565b6040820160008201516117806000850182611574565b5060208201516117936020850182611799565b50505050565b6117a281611b27565b82525050565b6117b181611b27565b82525050565b60006020820190506117cc6000830184611583565b92915050565b60006040820190506117e76000830185611583565b6117f460208301846117a8565b9392505050565b600060208201905081810360008301526118158184611592565b905092915050565b600060408201905081810360008301526118378185611592565b9050818103602083015261184b818461164e565b90509392505050565b6000602082019050818103600083015261186e81846115f0565b905092915050565b600060208201905061188b60008301846116ac565b92915050565b600060208201905081810360008301526118aa816116bb565b9050919050565b600060208201905081810360008301526118ca816116de565b9050919050565b600060208201905081810360008301526118ea81611701565b9050919050565b6000602082019050818103600083015261190a81611724565b9050919050565b6000602082019050818103600083015261192a81611747565b9050919050565b600060208201905061194660008301846117a8565b92915050565b6000819050602082019050919050565b6000819050602082019050919050565b6000819050602082019050919050565b600081519050919050565b600081519050919050565b600081519050919050565b6000602082019050919050565b6000602082019050919050565b6000602082019050919050565b600082825260208201905092915050565b600082825260208201905092915050565b600082825260208201905092915050565b600082825260208201905092915050565b6000611a1382611b27565b9150611a1e83611b27565b9250827fffffffffffffffffffffffffffffffffffffffffffffffffffffffffffffffff03821115611a5357611a52611b7a565b5b828201905092915050565b6000611a6982611b27565b9150611a7483611b27565b925082611a8457611a83611ba9565b5b828204905092915050565b6000611a9a82611b27565b9150611aa583611b27565b9250817fffffffffffffffffffffffffffffffffffffffffffffffffffffffffffffffff0483118215151615611ade57611add611b7a565b5b828202905092915050565b6000611af482611b07565b9050919050565b60008115159050919050565b600073ffffffffffffffffffffffffffffffffffffffff82169050919050565b6000819050919050565b6000611b3c82611b27565b91507fffffffffffffffffffffffffffffffffffffffffffffffffffffffffffffffff821415611b6f57611b6e611b7a565b5b600182019050919050565b7f4e487b7100000000000000000000000000000000000000000000000000000000600052601160045260246000fd5b7f4e487b7100000000000000000000000000000000000000000000000000000000600052601260045260246000fd5b7f4f776e61626c653a206e6577206f776e657220697320746865207a65726f206160008201527f6464726573730000000000000000000000000000000000000000000000000000602082015250565b7f53656e74204574686572206973206c657373207468616e20746865206375727260008201527f656e742070726963650000000000000000000000000000000000000000000000602082015250565b7f4e6f206d6f6e617263687320746f206a6f696e20746865206775696c642e0000600082015250565b7f5061757361626c653a2070617573656400000000000000000000000000000000600082015250565b7f4f776e61626c653a2063616c6c6572206973206e6f7420746865206f776e6572600082015250565b611cfa81611ae9565b8114611d0557600080fd5b50565b611d1181611afb565b8114611d1c57600080fd5b50565b611d2881611b27565b8114611d3357600080fd5b5056fea2646970667358221220a6df45eb4818c87933e16436a2711bd1cb18ddec1c93e1ee5c1d351226d4a93164736f6c63430008040033608060405234801561001057600080fd5b5060405161086a38038061086a8339818101604052810190610032919061008d565b806000806101000a81548173ffffffffffffffffffffffffffffffffffffffff021916908373ffffffffffffffffffffffffffffffffffffffff160217905550506100ff565b600081519050610087816100e8565b92915050565b60006020828403121561009f57600080fd5b60006100ad84828501610078565b91505092915050565b60006100c1826100c8565b9050919050565b600073ffffffffffffffffffffffffffffffffffffffff82169050919050565b6100f1816100b6565b81146100fc57600080fd5b50565b61075c8061010e6000396000f3fe608060405234801561001057600080fd5b50600436106100575760003560e01c80630931dcde1461005c578063928a77621461008c578063a230c524146100bc578063eb00eb8f146100ec578063fffb7be514610108575b600080fd5b6100766004803603810190610071919061040b565b610124565b6040516100839190610536565b60405180910390f35b6100a660048036038101906100a1919061040b565b61013c565b6040516100b39190610536565b60405180910390f35b6100d660048036038101906100d1919061040b565b610185565b6040516100e391906104bb565b60405180910390f35b6101066004803603810190610101919061040b565b6101a5565b005b610122600480360381019061011d919061040b565b610310565b005b60016020528060005260406000206000915090505481565b6000600160008373ffffffffffffffffffffffffffffffffffffffff1673ffffffffffffffffffffffffffffffffffffffff168152602001908152602001600020549050919050565b60026020528060005260406000206000915054906101000a900460ff1681565b60008054906101000a900473ffffffffffffffffffffffffffffffffffffffff1673ffffffffffffffffffffffffffffffffffffffff163373ffffffffffffffffffffffffffffffffffffffff1614610233576040517f08c379a000000000000000000000000000000000000000000000000000000000815260040161022a906104d6565b60405180910390fd5b60018060008373ffffffffffffffffffffffffffffffffffffffff1673ffffffffffffffffffffffffffffffffffffffff1681526020019081526020016000205410156102b5576040517f08c379a00000000000000000000000000000000000000000000000000000000081526004016102ac906104f6565b60405180910390fd5b6001600260008373ffffffffffffffffffffffffffffffffffffffff1673ffffffffffffffffffffffffffffffffffffffff16815260200190815260200160002060006101000a81548160ff02191690831515021790555050565b60008054906101000a900473ffffffffffffffffffffffffffffffffffffffff1673ffffffffffffffffffffffffffffffffffffffff163373ffffffffffffffffffffffffffffffffffffffff161461039e576040517f08c379a000000000000000000000000000000000000000000000000000000000815260040161039590610516565b60405180910390fd5b600160008273ffffffffffffffffffffffffffffffffffffffff1673ffffffffffffffffffffffffffffffffffffffff16815260200190815260200160002060008154809291906103ee906105aa565b919050555050565b6000813590506104058161070f565b92915050565b60006020828403121561041d57600080fd5b600061042b848285016103f6565b91505092915050565b61043d81610574565b82525050565b6000610450602783610551565b915061045b82610622565b604082019050919050565b6000610473602e83610551565b915061047e82610671565b604082019050919050565b6000610496602f83610551565b91506104a1826106c0565b604082019050919050565b6104b5816105a0565b82525050565b60006020820190506104d06000830184610434565b92915050565b600060208201905081810360008301526104ef81610443565b9050919050565b6000602082019050818103600083015261050f81610466565b9050919050565b6000602082019050818103600083015261052f81610489565b9050919050565b600060208201905061054b60008301846104ac565b92915050565b600082825260208201905092915050565b600061056d82610580565b9050919050565b60008115159050919050565b600073ffffffffffffffffffffffffffffffffffffffff82169050919050565b6000819050919050565b60006105b5826105a0565b91507fffffffffffffffffffffffffffffffffffffffffffffffffffffffffffffffff8214156105e8576105e76105f3565b5b600182019050919050565b7f4e487b7100000000000000000000000000000000000000000000000000000000600052601160045260246000fd5b7f4f6e6c79207468652067616d6520636f6e74726163742063616e20616464206d60008201527f656d626572732e00000000000000000000000000000000000000000000000000602082015250565b7f4d6f6e61726368206d75737420636c61696d20746865207468726f6e6520332060008201527f74696d657320746f206a6f696e2e000000000000000000000000000000000000602082015250565b7f4f6e6c79207468652067616d6520636f6e74726163742063616e20696e63726560008201527f617365206a6f696e20636f756e742e0000000000000000000000000000000000602082015250565b61071881610562565b811461072357600080fd5b5056fea26469706673582212205c0fd12f12b7553637cc7a46a13d8179c3b0afbaf9b2eeb9c1528be99a06003764736f6c63430008040033",
  "linkReferences": {},
  "deployedLinkReferences": {}
}