{
  "_format": "hh-sol-artifact-1",
  "contractName": "RoyalGuild",
  "sourceName": "contracts/RoyalGuild.sol",
  "abi": [
    {
      "inputs": [
        {
          "internalType": "address",
          "name": "owner",
          "type": "address"
        }
      ],
      "stateMutability": "nonpayable",
      "type": "constructor"
    },
    {
      "inputs": [
        {
          "internalType": "address",
          "name": "monarch",
          "type": "address"
        }
      ],
      "name": "getMonarchJoinCount",
      "outputs": [
        {
          "internalType": "uint256",
          "name": "",
          "type": "uint256"
        }
      ],
      "stateMutability": "view",
      "type": "function"
    },
    {
      "inputs": [
        {
          "internalType": "address",
          "name": "monarch",
          "type": "address"
        }
      ],
      "name": "increaseJoinCount",
      "outputs": [],
      "stateMutability": "nonpayable",
      "type": "function"
    },
    {
      "inputs": [
        {
          "internalType": "address",
          "name": "",
          "type": "address"
        }
      ],
      "name": "isMember",
      "outputs": [
        {
          "internalType": "bool",
          "name": "",
          "type": "bool"
        }
      ],
      "stateMutability": "view",
      "type": "function"
    },
    {
      "inputs": [
        {
          "internalType": "address",
          "name": "monarch",
          "type": "address"
        }
      ],
      "name": "joinGuild",
      "outputs": [],
      "stateMutability": "nonpayable",
      "type": "function"
    },
    {
      "inputs": [
        {
          "internalType": "address",
          "name": "",
          "type": "address"
        }
      ],
      "name": "monarchJoinCount",
      "outputs": [
        {
          "internalType": "uint256",
          "name": "",
          "type": "uint256"
        }
      ],
      "stateMutability": "view",
      "type": "function"
    }
  ],
  "bytecode": "0x608060405234801561001057600080fd5b5060405161086a38038061086a8339818101604052810190610032919061008d565b806000806101000a81548173ffffffffffffffffffffffffffffffffffffffff021916908373ffffffffffffffffffffffffffffffffffffffff160217905550506100ff565b600081519050610087816100e8565b92915050565b60006020828403121561009f57600080fd5b60006100ad84828501610078565b91505092915050565b60006100c1826100c8565b9050919050565b600073ffffffffffffffffffffffffffffffffffffffff82169050919050565b6100f1816100b6565b81146100fc57600080fd5b50565b61075c8061010e6000396000f3fe608060405234801561001057600080fd5b50600436106100575760003560e01c80630931dcde1461005c578063928a77621461008c578063a230c524146100bc578063eb00eb8f146100ec578063fffb7be514610108575b600080fd5b6100766004803603810190610071919061040b565b610124565b6040516100839190610536565b60405180910390f35b6100a660048036038101906100a1919061040b565b61013c565b6040516100b39190610536565b60405180910390f35b6100d660048036038101906100d1919061040b565b610185565b6040516100e391906104bb565b60405180910390f35b6101066004803603810190610101919061040b565b6101a5565b005b610122600480360381019061011d919061040b565b610310565b005b60016020528060005260406000206000915090505481565b6000600160008373ffffffffffffffffffffffffffffffffffffffff1673ffffffffffffffffffffffffffffffffffffffff168152602001908152602001600020549050919050565b60026020528060005260406000206000915054906101000a900460ff1681565b60008054906101000a900473ffffffffffffffffffffffffffffffffffffffff1673ffffffffffffffffffffffffffffffffffffffff163373ffffffffffffffffffffffffffffffffffffffff1614610233576040517f08c379a000000000000000000000000000000000000000000000000000000000815260040161022a906104d6565b60405180910390fd5b60018060008373ffffffffffffffffffffffffffffffffffffffff1673ffffffffffffffffffffffffffffffffffffffff1681526020019081526020016000205410156102b5576040517f08c379a00000000000000000000000000000000000000000000000000000000081526004016102ac906104f6565b60405180910390fd5b6001600260008373ffffffffffffffffffffffffffffffffffffffff1673ffffffffffffffffffffffffffffffffffffffff16815260200190815260200160002060006101000a81548160ff02191690831515021790555050565b60008054906101000a900473ffffffffffffffffffffffffffffffffffffffff1673ffffffffffffffffffffffffffffffffffffffff163373ffffffffffffffffffffffffffffffffffffffff161461039e576040517f08c379a000000000000000000000000000000000000000000000000000000000815260040161039590610516565b60405180910390fd5b600160008273ffffffffffffffffffffffffffffffffffffffff1673ffffffffffffffffffffffffffffffffffffffff16815260200190815260200160002060008154809291906103ee906105aa565b919050555050565b6000813590506104058161070f565b92915050565b60006020828403121561041d57600080fd5b600061042b848285016103f6565b91505092915050565b61043d81610574565b82525050565b6000610450602783610551565b915061045b82610622565b604082019050919050565b6000610473602e83610551565b915061047e82610671565b604082019050919050565b6000610496602f83610551565b91506104a1826106c0565b604082019050919050565b6104b5816105a0565b82525050565b60006020820190506104d06000830184610434565b92915050565b600060208201905081810360008301526104ef81610443565b9050919050565b6000602082019050818103600083015261050f81610466565b9050919050565b6000602082019050818103600083015261052f81610489565b9050919050565b600060208201905061054b60008301846104ac565b92915050565b600082825260208201905092915050565b600061056d82610580565b9050919050565b60008115159050919050565b600073ffffffffffffffffffffffffffffffffffffffff82169050919050565b6000819050919050565b60006105b5826105a0565b91507fffffffffffffffffffffffffffffffffffffffffffffffffffffffffffffffff8214156105e8576105e76105f3565b5b600182019050919050565b7f4e487b7100000000000000000000000000000000000000000000000000000000600052601160045260246000fd5b7f4f6e6c79207468652067616d6520636f6e74726163742063616e20616464206d60008201527f656d626572732e00000000000000000000000000000000000000000000000000602082015250565b7f4d6f6e61726368206d75737420636c61696d20746865207468726f6e6520332060008201527f74696d657320746f206a6f696e2e000000000000000000000000000000000000602082015250565b7f4f6e6c79207468652067616d6520636f6e74726163742063616e20696e63726560008201527f617365206a6f696e20636f756e742e0000000000000000000000000000000000602082015250565b61071881610562565b811461072357600080fd5b5056fea26469706673582212205c0fd12f12b7553637cc7a46a13d8179c3b0afbaf9b2eeb9c1528be99a06003764736f6c63430008040033",
  "linkReferences": {},
  "deployedLinkReferences": {}
}